{
  "_format": "hh-sol-artifact-1",
  "contractName": "SleepToEarn",
  "sourceName": "contracts/SleepToEarn.sol",
  "abi": [
    {
      "inputs": [
        {
          "internalType": "address",
          "name": "_sleepToken",
          "type": "address"
        }
      ],
      "stateMutability": "nonpayable",
      "type": "constructor"
    },
    {
      "inputs": [
        {
          "internalType": "address",
          "name": "owner",
          "type": "address"
        }
      ],
      "name": "OwnableInvalidOwner",
      "type": "error"
    },
    {
      "inputs": [
        {
          "internalType": "address",
          "name": "account",
          "type": "address"
        }
      ],
      "name": "OwnableUnauthorizedAccount",
      "type": "error"
    },
    {
      "inputs": [],
      "name": "ReentrancyGuardReentrantCall",
      "type": "error"
    },
    {
      "anonymous": false,
      "inputs": [
        {
          "indexed": true,
          "internalType": "address",
          "name": "oracle",
          "type": "address"
        },
        {
          "indexed": false,
          "internalType": "bool",
          "name": "authorized",
          "type": "bool"
        }
      ],
      "name": "OracleAuthorized",
      "type": "event"
    },
    {
      "anonymous": false,
      "inputs": [
        {
          "indexed": true,
          "internalType": "address",
          "name": "previousOwner",
          "type": "address"
        },
        {
          "indexed": true,
          "internalType": "address",
          "name": "newOwner",
          "type": "address"
        }
      ],
      "name": "OwnershipTransferred",
      "type": "event"
    },
    {
      "anonymous": false,
      "inputs": [
        {
          "indexed": true,
          "internalType": "address",
          "name": "user",
          "type": "address"
        },
        {
          "indexed": true,
          "internalType": "uint256",
          "name": "date",
          "type": "uint256"
        },
        {
          "indexed": false,
          "internalType": "uint256",
          "name": "tokensAwarded",
          "type": "uint256"
        }
      ],
      "name": "SleepDataSubmitted",
      "type": "event"
    },
    {
      "anonymous": false,
      "inputs": [
        {
          "indexed": true,
          "internalType": "address",
          "name": "user",
          "type": "address"
        },
        {
          "indexed": false,
          "internalType": "uint256",
          "name": "amount",
          "type": "uint256"
        },
        {
          "indexed": false,
          "internalType": "string",
          "name": "reason",
          "type": "string"
        }
      ],
      "name": "TokensAwarded",
      "type": "event"
    },
    {
      "inputs": [],
      "name": "BASE_SLEEP_HOURS",
      "outputs": [
        {
          "internalType": "uint256",
          "name": "",
          "type": "uint256"
        }
      ],
      "stateMutability": "view",
      "type": "function"
    },
    {
      "inputs": [],
      "name": "IMPROVEMENT_WINDOW_DAYS",
      "outputs": [
        {
          "internalType": "uint256",
          "name": "",
          "type": "uint256"
        }
      ],
      "stateMutability": "view",
      "type": "function"
    },
    {
      "inputs": [],
      "name": "MAX_DAILY_TOKENS",
      "outputs": [
        {
          "internalType": "uint256",
          "name": "",
          "type": "uint256"
        }
      ],
      "stateMutability": "view",
      "type": "function"
    },
    {
      "inputs": [
        {
          "internalType": "address",
          "name": "",
          "type": "address"
        }
      ],
      "name": "authorizedOracles",
      "outputs": [
        {
          "internalType": "bool",
          "name": "",
          "type": "bool"
        }
      ],
      "stateMutability": "view",
      "type": "function"
    },
    {
      "inputs": [
        {
          "internalType": "address",
          "name": "user",
          "type": "address"
        },
        {
          "internalType": "uint256",
          "name": "date",
          "type": "uint256"
        }
      ],
      "name": "getUserSleepData",
      "outputs": [
        {
          "components": [
            {
              "internalType": "uint256",
              "name": "timestamp",
              "type": "uint256"
            },
            {
              "internalType": "uint256",
              "name": "sleepDurationMinutes",
              "type": "uint256"
            },
            {
              "internalType": "uint256",
              "name": "efficiencyPercentage",
              "type": "uint256"
            },
            {
              "internalType": "uint256",
              "name": "sleepCycles",
              "type": "uint256"
            },
            {
              "internalType": "uint256",
              "name": "deepSleepMinutes",
              "type": "uint256"
            },
            {
              "internalType": "uint256",
              "name": "remSleepMinutes",
              "type": "uint256"
            },
            {
              "internalType": "bool",
              "name": "isValid",
              "type": "bool"
            }
          ],
          "internalType": "struct SleepToEarn.SleepData",
          "name": "",
          "type": "tuple"
        }
      ],
      "stateMutability": "view",
      "type": "function"
    },
    {
      "inputs": [
        {
          "internalType": "address",
          "name": "user",
          "type": "address"
        }
      ],
      "name": "getUserStats",
      "outputs": [
        {
          "internalType": "uint256",
          "name": "totalTokens",
          "type": "uint256"
        },
        {
          "internalType": "uint256",
          "name": "currentStreak",
          "type": "uint256"
        },
        {
          "internalType": "uint256",
          "name": "longestStreak",
          "type": "uint256"
        },
        {
          "internalType": "uint256",
          "name": "totalSessions",
          "type": "uint256"
        }
      ],
      "stateMutability": "view",
      "type": "function"
    },
    {
      "inputs": [],
      "name": "owner",
      "outputs": [
        {
          "internalType": "address",
          "name": "",
          "type": "address"
        }
      ],
      "stateMutability": "view",
      "type": "function"
    },
    {
      "inputs": [],
      "name": "renounceOwnership",
      "outputs": [],
      "stateMutability": "nonpayable",
      "type": "function"
    },
    {
      "inputs": [
        {
          "internalType": "address",
          "name": "oracle",
          "type": "address"
        },
        {
          "internalType": "bool",
          "name": "authorized",
          "type": "bool"
        }
      ],
      "name": "setOracleAuthorization",
      "outputs": [],
      "stateMutability": "nonpayable",
      "type": "function"
    },
    {
      "inputs": [],
      "name": "sleepToken",
      "outputs": [
        {
          "internalType": "contract SleepToken",
          "name": "",
          "type": "address"
        }
      ],
      "stateMutability": "view",
      "type": "function"
    },
    {
      "inputs": [
        {
          "internalType": "address",
          "name": "user",
          "type": "address"
        },
        {
          "internalType": "uint256",
          "name": "date",
          "type": "uint256"
        },
        {
          "internalType": "uint256",
          "name": "sleepDurationMinutes",
          "type": "uint256"
        },
        {
          "internalType": "uint256",
          "name": "efficiencyPercentage",
          "type": "uint256"
        },
        {
          "internalType": "uint256",
          "name": "sleepCycles",
          "type": "uint256"
        },
        {
          "internalType": "uint256",
          "name": "deepSleepMinutes",
          "type": "uint256"
        },
        {
          "internalType": "uint256",
          "name": "remSleepMinutes",
          "type": "uint256"
        }
      ],
      "name": "submitSleepData",
      "outputs": [],
      "stateMutability": "nonpayable",
      "type": "function"
    },
    {
      "inputs": [
        {
          "internalType": "address",
          "name": "newOwner",
          "type": "address"
        }
      ],
      "name": "transferOwnership",
      "outputs": [],
      "stateMutability": "nonpayable",
      "type": "function"
    },
    {
      "inputs": [
        {
          "internalType": "address",
          "name": "",
          "type": "address"
        }
      ],
      "name": "userStats",
      "outputs": [
        {
          "internalType": "uint256",
          "name": "totalTokensEarned",
          "type": "uint256"
        },
        {
          "internalType": "uint256",
          "name": "currentStreak",
          "type": "uint256"
        },
        {
          "internalType": "uint256",
          "name": "longestStreak",
          "type": "uint256"
        },
        {
          "internalType": "uint256",
          "name": "lastSubmissionDate",
          "type": "uint256"
        },
        {
          "internalType": "uint256",
          "name": "totalSleepSessions",
          "type": "uint256"
        }
      ],
      "stateMutability": "view",
      "type": "function"
    }
  ],
  "bytecode": "0x608060405234801561001057600080fd5b506040516120c23803806120c283398181016040528101906100329190610299565b33600073ffffffffffffffffffffffffffffffffffffffff168173ffffffffffffffffffffffffffffffffffffffff16036100a55760006040517f1e4fbdf700000000000000000000000000000000000000000000000000000000815260040161009c91906102d5565b60405180910390fd5b6100b48161017260201b60201c565b5060018081905550600073ffffffffffffffffffffffffffffffffffffffff168173ffffffffffffffffffffffffffffffffffffffff160361012b576040517f08c379a00000000000000000000000000000000000000000000000000000000081526004016101229061034d565b60405180910390fd5b80600260006101000a81548173ffffffffffffffffffffffffffffffffffffffff021916908373ffffffffffffffffffffffffffffffffffffffff1602179055505061036d565b60008060009054906101000a900473ffffffffffffffffffffffffffffffffffffffff169050816000806101000a81548173ffffffffffffffffffffffffffffffffffffffff021916908373ffffffffffffffffffffffffffffffffffffffff1602179055508173ffffffffffffffffffffffffffffffffffffffff168173ffffffffffffffffffffffffffffffffffffffff167f8be0079c531659141344cd1fd0a4f28419497f9722a3daafe3b4186f6b6457e060405160405180910390a35050565b600080fd5b600073ffffffffffffffffffffffffffffffffffffffff82169050919050565b60006102668261023b565b9050919050565b6102768161025b565b811461028157600080fd5b50565b6000815190506102938161026d565b92915050565b6000602082840312156102af576102ae610236565b5b60006102bd84828501610284565b91505092915050565b6102cf8161025b565b82525050565b60006020820190506102ea60008301846102c6565b92915050565b600082825260208201905092915050565b7f496e76616c696420746f6b656e20616464726573730000000000000000000000600082015250565b60006103376015836102f0565b915061034282610301565b602082019050919050565b600060208201905081810360008301526103668161032a565b9050919050565b611d468061037c6000396000f3fe608060405234801561001057600080fd5b50600436106100cf5760003560e01c80638a65d8741161008c578063c7324c6b11610066578063c7324c6b1461021d578063d5c1a1e114610239578063f2fde38b14610255578063f7ea7dd314610271576100cf565b80638a65d874146101ad5780638da5cb5b146101e1578063c5c26c14146101ff576100cf565b806307ed5003146100d457806313902182146100f25780634e43603a1461011057806357353c051461014357806361c992a314610173578063715018a6146101a3575b600080fd5b6100dc61028f565b6040516100e99190611404565b60405180910390f35b6100fa6102b5565b6040516101079190611438565b60405180910390f35b61012a60048036038101906101259190611496565b6102ba565b60405161013a94939291906114c3565b60405180910390f35b61015d60048036038101906101589190611534565b610327565b60405161016a919061162c565b60405180910390f35b61018d60048036038101906101889190611496565b6103ec565b60405161019a9190611656565b60405180910390f35b6101ab61040c565b005b6101c760048036038101906101c29190611496565b610420565b6040516101d8959493929190611671565b60405180910390f35b6101e9610456565b6040516101f691906116d3565b60405180910390f35b61020761047f565b6040516102149190611438565b60405180910390f35b610237600480360381019061023291906116ee565b610484565b005b610253600480360381019061024e91906117bc565b610950565b005b61026f600480360381019061026a9190611496565b610a01565b005b610279610a87565b6040516102869190611438565b60405180910390f35b600260009054906101000a900473ffffffffffffffffffffffffffffffffffffffff1681565b600781565b6000806000806000600360008773ffffffffffffffffffffffffffffffffffffffff1673ffffffffffffffffffffffffffffffffffffffff168152602001908152602001600020905080600001548160010154826002015483600401549450945094509450509193509193565b61032f611346565b600360008473ffffffffffffffffffffffffffffffffffffffff1673ffffffffffffffffffffffffffffffffffffffff16815260200190815260200160002060050160008381526020019081526020016000206040518060e00160405290816000820154815260200160018201548152602001600282015481526020016003820154815260200160048201548152602001600582015481526020016006820160009054906101000a900460ff161515151581525050905092915050565b60046020528060005260406000206000915054906101000a900460ff1681565b610414610a93565b61041e6000610b1a565b565b60036020528060005260406000206000915090508060000154908060010154908060020154908060030154908060040154905085565b60008060009054906101000a900473ffffffffffffffffffffffffffffffffffffffff16905090565b600681565b61048c610bde565b600460003373ffffffffffffffffffffffffffffffffffffffff1673ffffffffffffffffffffffffffffffffffffffff16815260200190815260200160002060009054906101000a900460ff16610518576040517f08c379a000000000000000000000000000000000000000000000000000000000815260040161050f90611859565b60405180910390fd5b600073ffffffffffffffffffffffffffffffffffffffff168773ffffffffffffffffffffffffffffffffffffffff1603610587576040517f08c379a000000000000000000000000000000000000000000000000000000000815260040161057e906118c5565b60405180910390fd5b630134d6e5861015801561059f57506301404cff8611155b6105de576040517f08c379a00000000000000000000000000000000000000000000000000000000081526004016105d590611931565b60405180910390fd5b6064841115610622576040517f08c379a00000000000000000000000000000000000000000000000000000000081526004016106199061199d565b60405180910390fd5b6105a0851115610667576040517f08c379a000000000000000000000000000000000000000000000000000000000815260040161065e90611a09565b60405180910390fd5b6000600360008973ffffffffffffffffffffffffffffffffffffffff1673ffffffffffffffffffffffffffffffffffffffff168152602001908152602001600020905080600501600088815260200190815260200160002060060160009054906101000a900460ff1615610710576040517f08c379a000000000000000000000000000000000000000000000000000000000815260040161070790611a9b565b60405180910390fd5b6040518060e0016040528042815260200187815260200186815260200185815260200184815260200183815260200160011515815250816005016000898152602001908152602001600020600082015181600001556020820151816001015560408201518160020155606082015181600301556080820151816004015560a0820151816005015560c08201518160060160006101000a81548160ff0219169083151502179055509050508060040160008154809291906107cf90611aea565b91905055506107de8888610c24565b60006107ea8989610cf5565b905060008111156108ee57808260000160008282546108099190611b32565b92505081905550600260009054906101000a900473ffffffffffffffffffffffffffffffffffffffff1673ffffffffffffffffffffffffffffffffffffffff166340c10f198a836040518363ffffffff1660e01b815260040161086d929190611b66565b600060405180830381600087803b15801561088757600080fd5b505af115801561089b573d6000803e3d6000fd5b505050508873ffffffffffffffffffffffffffffffffffffffff167f05f2fd723185554fdf2a816cc51fac921d92feebdbe92c9b0cee9decb58f9c5f826040516108e59190611bdb565b60405180910390a25b878973ffffffffffffffffffffffffffffffffffffffff167f7938ee0ced9f77905d0f00440f658a89da0c0527720b28b44d8330f970e4ff1e836040516109359190611438565b60405180910390a35050610947610e4e565b50505050505050565b610958610a93565b80600460008473ffffffffffffffffffffffffffffffffffffffff1673ffffffffffffffffffffffffffffffffffffffff16815260200190815260200160002060006101000a81548160ff0219169083151502179055508173ffffffffffffffffffffffffffffffffffffffff167f82a8fb1e779ea45ad427cc612e47087f5386a567e49dce488185e40646fa48d5826040516109f59190611656565b60405180910390a25050565b610a09610a93565b600073ffffffffffffffffffffffffffffffffffffffff168173ffffffffffffffffffffffffffffffffffffffff1603610a7b5760006040517f1e4fbdf7000000000000000000000000000000000000000000000000000000008152600401610a7291906116d3565b60405180910390fd5b610a8481610b1a565b50565b678ac7230489e8000081565b610a9b610e57565b73ffffffffffffffffffffffffffffffffffffffff16610ab9610456565b73ffffffffffffffffffffffffffffffffffffffff1614610b1857610adc610e57565b6040517f118cdaa7000000000000000000000000000000000000000000000000000000008152600401610b0f91906116d3565b60405180910390fd5b565b60008060009054906101000a900473ffffffffffffffffffffffffffffffffffffffff169050816000806101000a81548173ffffffffffffffffffffffffffffffffffffffff021916908373ffffffffffffffffffffffffffffffffffffffff1602179055508173ffffffffffffffffffffffffffffffffffffffff168173ffffffffffffffffffffffffffffffffffffffff167f8be0079c531659141344cd1fd0a4f28419497f9722a3daafe3b4186f6b6457e060405160405180910390a35050565b600260015403610c1a576040517f3ee5aeb500000000000000000000000000000000000000000000000000000000815260040160405180910390fd5b6002600181905550565b6000600360008473ffffffffffffffffffffffffffffffffffffffff1673ffffffffffffffffffffffffffffffffffffffff16815260200190815260200160002090506000610c74836001610e5f565b905080826003015403610ca057816001016000815480929190610c9690611aea565b9190505550610cc8565b600082600301541115610cbc5760018260010181905550610cc7565b600182600101819055505b5b816002015482600101541115610ce657816001015482600201819055505b82826003018190555050505050565b600080600360008573ffffffffffffffffffffffffffffffffffffffff1673ffffffffffffffffffffffffffffffffffffffff168152602001908152602001600020905060008160050160008581526020019081526020016000206040518060e00160405290816000820154815260200160018201548152602001600282015481526020016003820154815260200160048201548152602001600582015481526020016006820160009054906101000a900460ff16151515158152505090506000603c8260200151610dc79190611c38565b90506006811015610dde5760009350505050610e48565b6000610de983610f7a565b90506000610df78888611049565b90506000610e04896112c1565b90506000818385610e159190611b32565b610e1f9190611b32565b9050678ac7230489e80000811115610e3d57678ac7230489e8000090505b809750505050505050505b92915050565b60018081905550565b600033905090565b60008061271084610e709190611c38565b90506000606461271086610e849190611c69565b610e8e9190611c38565b90506000606486610e9f9190611c69565b905084811115610ebf578486610eb59190611c9a565b9350505050610f74565b6001821115610f25578085610ed49190611c9a565b601e610ee09190611c9a565b6064600184610eef9190611c9a565b610ef99190611cce565b61271085610f079190611cce565b610f119190611b32565b610f1b9190611b32565b9350505050610f74565b8085610f319190611c9a565b601e610f3d9190611c9a565b6104b0612710600186610f509190611c9a565b610f5a9190611cce565b610f649190611b32565b610f6e9190611b32565b93505050505b92915050565b600080603c8360200151610f8e9190611c38565b9050600083604001519050600084606001519050600060068410158015610fb6575060468310155b15610fc757670de0b6b3a764000090505b60078410158015610fd95750604b8310155b15610fea57671bc16d674ec8000090505b60088410158015610ffc575060508310155b1561100d576729a2241af62c000090505b6008841015801561101f575060558310155b801561102c575060038210155b1561103d57673782dace9d90000090505b80945050505050919050565b600080600360008573ffffffffffffffffffffffffffffffffffffffff1673ffffffffffffffffffffffffffffffffffffffff168152602001908152602001600020905060008160050160008581526020019081526020016000206040518060e00160405290816000820154815260200160018201548152602001600282015481526020016003820154815260200160048201548152602001600582015481526020016006820160009054906101000a900460ff16151515158152505090506000806000600190505b6007811161119c5760006111268883610e5f565b905085600501600082815260200190815260200160002060060160009054906101000a900460ff16156111885785600501600082815260200190815260200160002060020154836111779190611b32565b9250838061118490611aea565b9450505b50808061119490611aea565b915050611112565b5060038210156111b35760009450505050506112bb565b600082826111c19190611c38565b90506000846040015190508181116111e257600096505050505050506112bb565b600082606484846111f39190611c9a565b6111fd9190611cce565b6112079190611c38565b90506005811015801561121a5750600a81105b1561123657670de0b6b3a76400009750505050505050506112bb565b600a81101580156112475750601481105b1561126357671bc16d674ec800009750505050505050506112bb565b601481101580156112745750601e81105b15611290576729a2241af62c00009750505050505050506112bb565b601e81106112af57673782dace9d9000009750505050505050506112bb565b60009750505050505050505b92915050565b600080600360008473ffffffffffffffffffffffffffffffffffffffff1673ffffffffffffffffffffffffffffffffffffffff1681526020019081526020016000206001015490506007811061132257671bc16d674ec80000915050611341565b6003811061133b57670de0b6b3a7640000915050611341565b60009150505b919050565b6040518060e001604052806000815260200160008152602001600081526020016000815260200160008152602001600081526020016000151581525090565b600073ffffffffffffffffffffffffffffffffffffffff82169050919050565b6000819050919050565b60006113ca6113c56113c084611385565b6113a5565b611385565b9050919050565b60006113dc826113af565b9050919050565b60006113ee826113d1565b9050919050565b6113fe816113e3565b82525050565b600060208201905061141960008301846113f5565b92915050565b6000819050919050565b6114328161141f565b82525050565b600060208201905061144d6000830184611429565b92915050565b600080fd5b600061146382611385565b9050919050565b61147381611458565b811461147e57600080fd5b50565b6000813590506114908161146a565b92915050565b6000602082840312156114ac576114ab611453565b5b60006114ba84828501611481565b91505092915050565b60006080820190506114d86000830187611429565b6114e56020830186611429565b6114f26040830185611429565b6114ff6060830184611429565b95945050505050565b6115118161141f565b811461151c57600080fd5b50565b60008135905061152e81611508565b92915050565b6000806040838503121561154b5761154a611453565b5b600061155985828601611481565b925050602061156a8582860161151f565b9150509250929050565b61157d8161141f565b82525050565b60008115159050919050565b61159881611583565b82525050565b60e0820160008201516115b46000850182611574565b5060208201516115c76020850182611574565b5060408201516115da6040850182611574565b5060608201516115ed6060850182611574565b5060808201516116006080850182611574565b5060a082015161161360a0850182611574565b5060c082015161162660c085018261158f565b50505050565b600060e082019050611641600083018461159e565b92915050565b61165081611583565b82525050565b600060208201905061166b6000830184611647565b92915050565b600060a0820190506116866000830188611429565b6116936020830187611429565b6116a06040830186611429565b6116ad6060830185611429565b6116ba6080830184611429565b9695505050505050565b6116cd81611458565b82525050565b60006020820190506116e860008301846116c4565b92915050565b600080600080600080600060e0888a03121561170d5761170c611453565b5b600061171b8a828b01611481565b975050602061172c8a828b0161151f565b965050604061173d8a828b0161151f565b955050606061174e8a828b0161151f565b945050608061175f8a828b0161151f565b93505060a06117708a828b0161151f565b92505060c06117818a828b0161151f565b91505092959891949750929550565b61179981611583565b81146117a457600080fd5b50565b6000813590506117b681611790565b92915050565b600080604083850312156117d3576117d2611453565b5b60006117e185828601611481565b92505060206117f2858286016117a7565b9150509250929050565b600082825260208201905092915050565b7f4e6f7420617574686f72697a6564206f7261636c650000000000000000000000600082015250565b60006118436015836117fc565b915061184e8261180d565b602082019050919050565b6000602082019050818103600083015261187281611836565b9050919050565b7f496e76616c696420757365722061646472657373000000000000000000000000600082015250565b60006118af6014836117fc565b91506118ba82611879565b602082019050919050565b600060208201905081810360008301526118de816118a2565b9050919050565b7f496e76616c6964206461746520666f726d617400000000000000000000000000600082015250565b600061191b6013836117fc565b9150611926826118e5565b602082019050919050565b6000602082019050818103600083015261194a8161190e565b9050919050565b7f496e76616c696420656666696369656e63792070657263656e74616765000000600082015250565b6000611987601d836117fc565b915061199282611951565b602082019050919050565b600060208201905081810360008301526119b68161197a565b9050919050565b7f536c656570206475726174696f6e20746f6f206c6f6e67000000000000000000600082015250565b60006119f36017836117fc565b91506119fe826119bd565b602082019050919050565b60006020820190508181036000830152611a22816119e6565b9050919050565b7f536c656570206461746120616c72656164792065786973747320666f7220746860008201527f6973206461746500000000000000000000000000000000000000000000000000602082015250565b6000611a856027836117fc565b9150611a9082611a29565b604082019050919050565b60006020820190508181036000830152611ab481611a78565b9050919050565b7f4e487b7100000000000000000000000000000000000000000000000000000000600052601160045260246000fd5b6000611af58261141f565b91507fffffffffffffffffffffffffffffffffffffffffffffffffffffffffffffffff8203611b2757611b26611abb565b5b600182019050919050565b6000611b3d8261141f565b9150611b488361141f565b9250828201905080821115611b6057611b5f611abb565b5b92915050565b6000604082019050611b7b60008301856116c4565b611b886020830184611429565b9392505050565b7f4461696c7920736c656570207265776172640000000000000000000000000000600082015250565b6000611bc56012836117fc565b9150611bd082611b8f565b602082019050919050565b6000604082019050611bf06000830184611429565b8181036020830152611c0181611bb8565b905092915050565b7f4e487b7100000000000000000000000000000000000000000000000000000000600052601260045260246000fd5b6000611c438261141f565b9150611c4e8361141f565b925082611c5e57611c5d611c09565b5b828204905092915050565b6000611c748261141f565b9150611c7f8361141f565b925082611c8f57611c8e611c09565b5b828206905092915050565b6000611ca58261141f565b9150611cb08361141f565b9250828203905081811115611cc857611cc7611abb565b5b92915050565b6000611cd98261141f565b9150611ce48361141f565b9250828202611cf28161141f565b91508282048414831517611d0957611d08611abb565b5b509291505056fea2646970667358221220095c14c88f60d21e76adf3d7c9d0d30eafa356cddd0627b0e41d09f44d3d901d64736f6c634300081c0033",
  "linkReferences": {},
  "deployedLinkReferences": {}
}